{
  "_format": "hh-sol-artifact-1",
  "contractName": "RockPaperScissors",
  "sourceName": "contracts/RockPaperScissors .sol",
  "abi": [
    {
      "inputs": [],
      "stateMutability": "nonpayable",
      "type": "constructor"
    },
    {
      "inputs": [],
      "name": "betWinnings",
      "outputs": [],
      "stateMutability": "nonpayable",
      "type": "function"
    },
    {
      "inputs": [],
      "name": "choosePaper",
      "outputs": [],
      "stateMutability": "nonpayable",
      "type": "function"
    },
    {
      "inputs": [
        {
          "internalType": "address",
          "name": "opponent",
          "type": "address"
        }
      ],
      "name": "choosePaperAgainst",
      "outputs": [],
      "stateMutability": "nonpayable",
      "type": "function"
    },
    {
      "inputs": [],
      "name": "chooseRock",
      "outputs": [],
      "stateMutability": "nonpayable",
      "type": "function"
    },
    {
      "inputs": [
        {
          "internalType": "address",
          "name": "opponent",
          "type": "address"
        }
      ],
      "name": "chooseRockAgainst",
      "outputs": [],
      "stateMutability": "nonpayable",
      "type": "function"
    },
    {
      "inputs": [],
      "name": "chooseScissors",
      "outputs": [],
      "stateMutability": "nonpayable",
      "type": "function"
    },
    {
      "inputs": [
        {
          "internalType": "address",
          "name": "opponent",
          "type": "address"
        }
      ],
      "name": "chooseScissorsAgainst",
      "outputs": [],
      "stateMutability": "nonpayable",
      "type": "function"
    },
    {
      "inputs": [
        {
          "internalType": "uint256",
          "name": "amount",
          "type": "uint256"
        }
      ],
      "name": "enterNextRound",
      "outputs": [],
      "stateMutability": "payable",
      "type": "function"
    },
    {
      "inputs": [],
      "name": "getBalance",
      "outputs": [
        {
          "internalType": "uint256",
          "name": "",
          "type": "uint256"
        }
      ],
      "stateMutability": "view",
      "type": "function"
    },
    {
      "inputs": [],
      "name": "getWinnings",
      "outputs": [],
      "stateMutability": "nonpayable",
      "type": "function"
    },
    {
      "inputs": [],
      "name": "playerOneMove",
      "outputs": [
        {
          "internalType": "enum RockPaperScissors.Moves",
          "name": "",
          "type": "uint8"
        }
      ],
      "stateMutability": "view",
      "type": "function"
    },
    {
      "inputs": [],
      "name": "playerTwoMove",
      "outputs": [
        {
          "internalType": "enum RockPaperScissors.Moves",
          "name": "",
          "type": "uint8"
        }
      ],
      "stateMutability": "view",
      "type": "function"
    },
    {
      "inputs": [],
      "name": "withdrawWager",
      "outputs": [],
      "stateMutability": "payable",
      "type": "function"
    }
  ],
  "bytecode": "0x6080604052600480546001600160a01b0319169055600580546001600160a81b031916600360a01b1760ff60a81b1916600360a81b17905534801561004357600080fd5b50611770806100536000396000f3fe6080604052600436106100c25760003560e01c8063ace4e6541161007f578063cc1ccb3f11610059578063cc1ccb3f146101b0578063d0e62709146101d0578063da103c8e146101e5578063f3cc2990146101fa576100c2565b8063ace4e65414610173578063af9d8b9914610188578063c1b9310c146101a8576100c2565b806312065fe0146100c75780634423474f146100f25780634e8aaf1f1461010757806368d35b581461012757806370b7596b1461013c578063a96c921d14610151575b600080fd5b3480156100d357600080fd5b506100dc61020f565b6040516100e9919061170d565b60405180910390f35b610105610100366004611447565b610213565b005b34801561011357600080fd5b50610105610122366004611419565b6102ef565b34801561013357600080fd5b5061010561044e565b34801561014857600080fd5b506101056104e2565b34801561015d57600080fd5b50610166610558565b6040516100e9919061145f565b34801561017f57600080fd5b50610166610568565b34801561019457600080fd5b506101056101a3366004611419565b610578565b6101056106d3565b3480156101bc57600080fd5b506101056101cb366004611419565b610770565b3480156101dc57600080fd5b506101056108cb565b3480156101f157600080fd5b5061010561095d565b34801561020657600080fd5b506101056109ef565b4790565b80341461023b5760405162461bcd60e51b815260040161023290611512565b60405180910390fd5b3360009081526001602052604090205460ff161561026b5760405162461bcd60e51b815260040161023290611553565b604080516060810182526001815234602082015290810160029052336000908152600160208181526040928390208451815490151560ff19918216178255918501518184015592840151600280850180549294909392909216919084908111156102e557634e487b7160e01b600052602160045260246000fd5b0217905550505050565b3360009081526001602081905260409091205460ff161515146103245760405162461bcd60e51b815260040161023290611600565b33600090815260016020526040902060029081015460ff168181111561035a57634e487b7160e01b600052602160045260246000fd5b146103775760405162461bcd60e51b815260040161023290611487565b6001600160a01b038116600090815260016020819052604090912054829160ff9091161515146103b95760405162461bcd60e51b815260040161023290611643565b6001600160a01b0380831660009081526020819052604090205483911615806103fb57506001600160a01b038181166000908152602081905260409020541633145b6104175760405162461bcd60e51b8152600401610232906114be565b33600090815260208190526040812080546001600160a01b0319166001600160a01b0386161790556104499084610abe565b505050565b3360009081526001602081905260409091205460ff161515146104835760405162461bcd60e51b815260040161023290611600565b33600090815260016020526040902060029081015460ff16818111156104b957634e487b7160e01b600052602160045260246000fd5b146104d65760405162461bcd60e51b815260040161023290611487565b6104e06000610e03565b565b3360009081526003602052604090205461050e5760405162461bcd60e51b8152600401610232906116d6565b3360008181526003602052604080822054905181156108fc0292818181858888f19350505050158015610545573d6000803e3d6000fd5b5033600090815260036020526040812055565b600554600160a01b900460ff1681565b600554600160a81b900460ff1681565b3360009081526001602081905260409091205460ff161515146105ad5760405162461bcd60e51b815260040161023290611600565b33600090815260016020526040902060029081015460ff16818111156105e357634e487b7160e01b600052602160045260246000fd5b146106005760405162461bcd60e51b815260040161023290611487565b6001600160a01b038116600090815260016020819052604090912054829160ff9091161515146106425760405162461bcd60e51b815260040161023290611643565b6001600160a01b03808316600090815260208190526040902054839116158061068457506001600160a01b038181166000908152602081905260409020541633145b6106a05760405162461bcd60e51b8152600401610232906114be565b33600090815260208190526040902080546001600160a01b0319166001600160a01b038516179055610449600184610abe565b33600090815260016020819052604090912001546107035760405162461bcd60e51b815260040161023290611579565b33600081815260016020819052604080832090910154905181156108fc0292818181858888f1935050505015801561073f573d6000803e3d6000fd5b503360009081526001602081905260408220805460ff19908116825591810192909255600290910180549091169055565b3360009081526001602081905260409091205460ff161515146107a55760405162461bcd60e51b815260040161023290611600565b33600090815260016020526040902060029081015460ff16818111156107db57634e487b7160e01b600052602160045260246000fd5b146107f85760405162461bcd60e51b815260040161023290611487565b6001600160a01b038116600090815260016020819052604090912054829160ff90911615151461083a5760405162461bcd60e51b815260040161023290611643565b6001600160a01b03808316600090815260208190526040902054839116158061087c57506001600160a01b038181166000908152602081905260409020541633145b6108985760405162461bcd60e51b8152600401610232906114be565b33600090815260208190526040902080546001600160a01b0319166001600160a01b038516179055610449600284610abe565b3360009081526001602081905260409091205460ff161515146109005760405162461bcd60e51b815260040161023290611600565b33600090815260016020526040902060029081015460ff168181111561093657634e487b7160e01b600052602160045260246000fd5b146109535760405162461bcd60e51b815260040161023290611487565b6104e06001610e03565b3360009081526001602081905260409091205460ff161515146109925760405162461bcd60e51b815260040161023290611600565b33600090815260016020526040902060029081015460ff16818111156109c857634e487b7160e01b600052602160045260246000fd5b146109e55760405162461bcd60e51b815260040161023290611487565b6104e06002610e03565b33600090815260036020526040902054610a1b5760405162461bcd60e51b8152600401610232906115cb565b60408051606081018252600181523360009081526003602090815290839020549082015290810160029052336000908152600160208181526040928390208451815490151560ff1991821617825591850151818401559284015160028085018054929490939290921691908490811115610aa557634e487b7160e01b600052602160045260246000fd5b0217905550503360009081526003602052604081205550565b600133600090815260016020526040902060029081015460ff1690811115610af657634e487b7160e01b600052602160045260246000fd5b50506001600160a01b0381811660009081526020819052604090205416610ced57604080516080810182523381526001600160a01b03831660208201526000918101846003811115610b5857634e487b7160e01b600052602160045260246000fd5b81526020016003905233600090815260026020908152604091829020835181546001600160a01b03199081166001600160a01b0392831617835592850151600183018054909416911617808355928401519394508493909290919060ff60a01b1916600160a01b836003811115610bdf57634e487b7160e01b600052602160045260246000fd5b0217905550606082015160018201805460ff60a81b1916600160a81b836003811115610c1b57634e487b7160e01b600052602160045260246000fd5b021790555050506001600160a01b03808316600090815260026020908152604091829020845181549085166001600160a01b03199182161782559185015160018201805491909516921691909117808455918401518493919290919060ff60a01b1916600160a01b836003811115610ca357634e487b7160e01b600052602160045260246000fd5b0217905550606082015160018201805460ff60a81b1916600160a81b836003811115610cdf57634e487b7160e01b600052602160045260246000fd5b021790555090505050610dff565b336000908152600260205260409020600101805483919060ff60a81b1916600160a81b836003811115610d3057634e487b7160e01b600052602160045260246000fd5b0217905550336000818152600260205260408082206001908101546001600160a01b038616845291832001549192610d7f9260ff600160a81b909304831692600160a01b909104169085610fb5565b90506001600160a01b038116610dec573360009081526002602052604080822080546001600160a01b03199081168255600191820180546001600160b01b03199081169091556001600160a01b038716855292909320805490931683559190910180549091169055610449565b610df5816111ea565b610449338361125b565b5050565b6004546001600160a01b03161580610e2457506005546001600160a01b0316155b610e405760405162461bcd60e51b815260040161023290611688565b336000908152600160205260409020600201805460ff191690556004546001600160a01b0316610eb957600480546001600160a01b031916331790556005805482919060ff60a01b1916600160a01b836003811115610eaf57634e487b7160e01b600052602160045260246000fd5b0217905550610f11565b6005546001600160a01b0316610f1157600580546001600160a01b031916331780825582919060ff60a81b1916600160a81b836003811115610f0b57634e487b7160e01b600052602160045260246000fd5b02179055505b6004546001600160a01b031615801590610f3557506005546001600160a01b031615155b15610fb257600554600454610f6d9160ff600160a01b8204811692600160a81b8304909116916001600160a01b039182169116610fb5565b600680546001600160a01b0319166001600160a01b03928316179081905516610f9557610fb2565b600654610faa906001600160a01b0316611313565b610fb26113a2565b50565b60006001856003811115610fd957634e487b7160e01b600052602160045260246000fd5b141561107257600184600381111561100157634e487b7160e01b600052602160045260246000fd5b141561100f575060006111e2565b600084600381111561103157634e487b7160e01b600052602160045260246000fd5b141561103e5750816111e2565b600284600381111561106057634e487b7160e01b600052602160045260246000fd5b141561106d5750806111e2565b6111de565b600085600381111561109457634e487b7160e01b600052602160045260246000fd5b14156111285760018460038111156110bc57634e487b7160e01b600052602160045260246000fd5b14156110c95750806111e2565b60008460038111156110eb57634e487b7160e01b600052602160045260246000fd5b14156110f9575060006111e2565b600284600381111561111b57634e487b7160e01b600052602160045260246000fd5b141561106d5750816111e2565b600285600381111561114a57634e487b7160e01b600052602160045260246000fd5b14156111de57600184600381111561117257634e487b7160e01b600052602160045260246000fd5b141561117f5750816111e2565b60008460038111156111a157634e487b7160e01b600052602160045260246000fd5b14156111ae5750806111e2565b60028460038111156111d057634e487b7160e01b600052602160045260246000fd5b14156111de575060006111e2565b5060005b949350505050565b6001600160a01b038082166000818152602081815260408083205490941680835260019182905284832082015493835293909120015461122a9190611716565b6001600160a01b03831660009081526003602052604081208054909190611252908490611716565b90915550505050565b6001600160a01b039182166000818152600160208181526040808420805460ff1990811682558185018690556002918201805482169055969097168085528185208054881681558085018690558801805490971690965584845283825280842080546001600160a01b0319908116909155868552818520805482169055948452959052848220805484168155810180546001600160b01b03199081169091559382529390208054909116815590910180549091169055565b6001600160a01b0381166113395760405162461bcd60e51b8152600401610232906115a7565b6005546001600160a01b039081166000908152600160208190526040808320820154600454909416835290912001546113729190611716565b6001600160a01b0382166000908152600360205260408120805490919061139a908490611716565b909155505050565b600480546001600160a01b039081166000908152600160208190526040808320805460ff19908116825581840185905560029182018054821690556005805490961685529184208054831681559283019390935591018054909116905581546001600160a01b031990811690925580549091169055565b60006020828403121561142a578081fd5b81356001600160a01b0381168114611440578182fd5b9392505050565b600060208284031215611458578081fd5b5035919050565b602081016004831061148157634e487b7160e01b600052602160045260246000fd5b91905290565b60208082526019908201527f506c6179657220697320616c726561647920696e2067616d6500000000000000604082015260600190565b60208082526034908201527f4f70706f6e656e7420697320616c726561647920696e20637573746f6d20676160408201527336b2903bb4ba341037ba3432b910383630bcb2b960611b606082015260800190565b60208082526021908201527f416d6f756e74206973206e6f7420657175616c20746f2066756e64732073656e6040820152601d60fa1b606082015260800190565b6020808252600c908201526b105b1c9958591e481c185a5960a21b604082015260600190565b6020808252601490820152734e6f2066756e647320746f20776974686472617760601b604082015260600190565b6020808252600a90820152695761732061206472617760b01b604082015260600190565b6020808252818101527f596f752068617665206e6f2077696e6e696e677320746f206265742077697468604082015260600190565b60208082526023908201527f506c6179657220686173206e6f7420706179656420666f72206e65787420726f6040820152621d5b9960ea1b606082015260800190565b60208082526025908201527f6f70706f6e656e7420686173206e6f7420706179656420666f72206e657874206040820152641c9bdd5b9960da1b606082015260800190565b6020808252602e908201527f4120676c6f62616c2067616d652069732063757272656e746c7920616c72656160408201526d647920696e2070726f677265737360901b606082015260800190565b60208082526019908201527f596f752068617665206e6f2077696e6e696e67732e204c4f4c00000000000000604082015260600190565b90815260200190565b6000821982111561173557634e487b7160e01b81526011600452602481fd5b50019056fea26469706673582212200a5d8c87ad4fc09f9f01757b71225c3e19c02d3beb442f8fc74fc7b2a6c032d064736f6c63430008000033",
  "linkReferences": {},
  "deployedLinkReferences": {}
}