{
  "_format": "hh-sol-artifact-1",
  "contractName": "RockPaperScissors",
  "sourceName": "contracts/RockPaperScissors .sol",
  "abi": [
    {
      "inputs": [],
      "stateMutability": "nonpayable",
      "type": "constructor"
    },
    {
      "inputs": [],
      "name": "choosePaper",
      "outputs": [],
      "stateMutability": "nonpayable",
      "type": "function"
    },
    {
      "inputs": [
        {
          "internalType": "address",
          "name": "opponent",
          "type": "address"
        }
      ],
      "name": "choosePaperAgainst",
      "outputs": [],
      "stateMutability": "nonpayable",
      "type": "function"
    },
    {
      "inputs": [],
      "name": "chooseRock",
      "outputs": [],
      "stateMutability": "nonpayable",
      "type": "function"
    },
    {
      "inputs": [
        {
          "internalType": "address",
          "name": "opponent",
          "type": "address"
        }
      ],
      "name": "chooseRockAgainst",
      "outputs": [],
      "stateMutability": "nonpayable",
      "type": "function"
    },
    {
      "inputs": [],
      "name": "chooseScissors",
      "outputs": [],
      "stateMutability": "nonpayable",
      "type": "function"
    },
    {
      "inputs": [
        {
          "internalType": "address",
          "name": "opponent",
          "type": "address"
        }
      ],
      "name": "chooseScissorsAgainst",
      "outputs": [],
      "stateMutability": "nonpayable",
      "type": "function"
    },
    {
      "inputs": [
        {
          "internalType": "uint256",
          "name": "amount",
          "type": "uint256"
        }
      ],
      "name": "enterNextRound",
      "outputs": [],
      "stateMutability": "payable",
      "type": "function"
    },
    {
      "inputs": [],
      "name": "getBalance",
      "outputs": [
        {
          "internalType": "uint256",
          "name": "",
          "type": "uint256"
        }
      ],
      "stateMutability": "view",
      "type": "function"
    },
    {
      "inputs": [],
      "name": "getWinnings",
      "outputs": [],
      "stateMutability": "nonpayable",
      "type": "function"
    },
    {
      "inputs": [],
      "name": "playerOneMove",
      "outputs": [
        {
          "internalType": "enum RockPaperScissors.Moves",
          "name": "",
          "type": "uint8"
        }
      ],
      "stateMutability": "view",
      "type": "function"
    },
    {
      "inputs": [],
      "name": "playerTwoMove",
      "outputs": [
        {
          "internalType": "enum RockPaperScissors.Moves",
          "name": "",
          "type": "uint8"
        }
      ],
      "stateMutability": "view",
      "type": "function"
    },
    {
      "inputs": [],
      "name": "withdrawWager",
      "outputs": [],
      "stateMutability": "payable",
      "type": "function"
    }
  ],
  "bytecode": "0x6080604052600480546001600160a01b0319169055600580546001600160a81b031916600360a01b1760ff60a81b1916600360a81b17905534801561004357600080fd5b5061155e806100536000396000f3fe6080604052600436106100a75760003560e01c8063ace4e65411610064578063ace4e65414610158578063af9d8b991461016d578063c1b9310c1461018d578063cc1ccb3f14610195578063d0e62709146101b5578063da103c8e146101ca576100a7565b806312065fe0146100ac5780634423474f146100d75780634e8aaf1f146100ec57806368d35b581461010c57806370b7596b14610121578063a96c921d14610136575b600080fd5b3480156100b857600080fd5b506100c16101df565b6040516100ce91906114fb565b60405180910390f35b6100ea6100e536600461128d565b6101e3565b005b3480156100f857600080fd5b506100ea61010736600461125f565b6102bf565b34801561011857600080fd5b506100ea610416565b34801561012d57600080fd5b506100ea6104aa565b34801561014257600080fd5b5061014b610520565b6040516100ce91906112a5565b34801561016457600080fd5b5061014b610530565b34801561017957600080fd5b506100ea61018836600461125f565b610540565b6100ea610695565b3480156101a157600080fd5b506100ea6101b036600461125f565b610732565b3480156101c157600080fd5b506100ea610887565b3480156101d657600080fd5b506100ea610919565b4790565b80341461020b5760405162461bcd60e51b815260040161020290611304565b60405180910390fd5b3360009081526001602052604090205460ff161561023b5760405162461bcd60e51b815260040161020290611345565b604080516060810182526001815234602082015290810160029052336000908152600160208181526040928390208451815490151560ff19918216178255918501518184015592840151600280850180549294909392909216919084908111156102b557634e487b7160e01b600052602160045260246000fd5b0217905550505050565b3360009081526001602081905260409091205460ff161515146102f45760405162461bcd60e51b815260040161020290611399565b33600090815260016020526040902060029081015460ff168181111561032a57634e487b7160e01b600052602160045260246000fd5b146103475760405162461bcd60e51b8152600401610202906112cd565b6001600160a01b03811660009081526001602081905260409091205460ff161515146103855760405162461bcd60e51b8152600401610202906113dc565b6001600160a01b038181166000908152602081905260409020541615806103c557506001600160a01b038181166000908152602081905260409020541633145b6103e15760405162461bcd60e51b815260040161020290611421565b33600090815260208190526040812080546001600160a01b0319166001600160a01b03841617905561041390826109ab565b50565b3360009081526001602081905260409091205460ff1615151461044b5760405162461bcd60e51b815260040161020290611399565b33600090815260016020526040902060029081015460ff168181111561048157634e487b7160e01b600052602160045260246000fd5b1461049e5760405162461bcd60e51b8152600401610202906112cd565b6104a86000610c87565b565b336000908152600360205260409020546104d65760405162461bcd60e51b8152600401610202906114c4565b3360008181526003602052604080822054905181156108fc0292818181858888f1935050505015801561050d573d6000803e3d6000fd5b5033600090815260036020526040812055565b600554600160a01b900460ff1681565b600554600160a81b900460ff1681565b3360009081526001602081905260409091205460ff161515146105755760405162461bcd60e51b815260040161020290611399565b33600090815260016020526040902060029081015460ff16818111156105ab57634e487b7160e01b600052602160045260246000fd5b146105c85760405162461bcd60e51b8152600401610202906112cd565b6001600160a01b03811660009081526001602081905260409091205460ff161515146106065760405162461bcd60e51b8152600401610202906113dc565b6001600160a01b0381811660009081526020819052604090205416158061064657506001600160a01b038181166000908152602081905260409020541633145b6106625760405162461bcd60e51b815260040161020290611421565b33600090815260208190526040902080546001600160a01b0319166001600160a01b0383161790556104136001826109ab565b33600090815260016020819052604090912001546106c55760405162461bcd60e51b81526004016102029061136b565b33600081815260016020819052604080832090910154905181156108fc0292818181858888f19350505050158015610701573d6000803e3d6000fd5b503360009081526001602081905260408220805460ff19908116825591810192909255600290910180549091169055565b3360009081526001602081905260409091205460ff161515146107675760405162461bcd60e51b815260040161020290611399565b33600090815260016020526040902060029081015460ff168181111561079d57634e487b7160e01b600052602160045260246000fd5b146107ba5760405162461bcd60e51b8152600401610202906112cd565b6001600160a01b03811660009081526001602081905260409091205460ff161515146107f85760405162461bcd60e51b8152600401610202906113dc565b6001600160a01b0381811660009081526020819052604090205416158061083857506001600160a01b038181166000908152602081905260409020541633145b6108545760405162461bcd60e51b815260040161020290611421565b33600090815260208190526040902080546001600160a01b0319166001600160a01b0383161790556104136002826109ab565b3360009081526001602081905260409091205460ff161515146108bc5760405162461bcd60e51b815260040161020290611399565b33600090815260016020526040902060029081015460ff16818111156108f257634e487b7160e01b600052602160045260246000fd5b1461090f5760405162461bcd60e51b8152600401610202906112cd565b6104a86001610c87565b3360009081526001602081905260409091205460ff1615151461094e5760405162461bcd60e51b815260040161020290611399565b33600090815260016020526040902060029081015460ff168181111561098457634e487b7160e01b600052602160045260246000fd5b146109a15760405162461bcd60e51b8152600401610202906112cd565b6104a86002610c87565b600133600090815260016020526040902060029081015460ff16908111156109e357634e487b7160e01b600052602160045260246000fd5b50506001600160a01b0381811660009081526020819052604090205416610bda57604080516080810182523381526001600160a01b03831660208201526000918101846003811115610a4557634e487b7160e01b600052602160045260246000fd5b81526020016003905233600090815260026020908152604091829020835181546001600160a01b03199081166001600160a01b0392831617835592850151600183018054909416911617808355928401519394508493909290919060ff60a01b1916600160a01b836003811115610acc57634e487b7160e01b600052602160045260246000fd5b0217905550606082015160018201805460ff60a81b1916600160a81b836003811115610b0857634e487b7160e01b600052602160045260246000fd5b021790555050506001600160a01b03808316600090815260026020908152604091829020845181549085166001600160a01b03199182161782559185015160018201805491909516921691909117808455918401518493919290919060ff60a01b1916600160a01b836003811115610b9057634e487b7160e01b600052602160045260246000fd5b0217905550606082015160018201805460ff60a81b1916600160a81b836003811115610bcc57634e487b7160e01b600052602160045260246000fd5b021790555090505050610c83565b336000908152600260205260409020600101805483919060ff60a81b1916600160a81b836003811115610c1d57634e487b7160e01b600052602160045260246000fd5b0217905550336000818152600260205260408082206001908101546001600160a01b038616845291832001549192610c6c9260ff600160a81b909304831692600160a01b909104169085610e21565b9050610c7781611056565b610c8133836110c7565b505b5050565b6004546001600160a01b03161580610ca857506005546001600160a01b0316155b610cc45760405162461bcd60e51b815260040161020290611476565b336000908152600160205260409020600201805460ff191690556004546001600160a01b0316610d3d57600480546001600160a01b031916331790556005805482919060ff60a01b1916600160a01b836003811115610d3357634e487b7160e01b600052602160045260246000fd5b0217905550610d95565b6005546001600160a01b0316610d9557600580546001600160a01b031916331780825582919060ff60a81b1916600160a81b836003811115610d8f57634e487b7160e01b600052602160045260246000fd5b02179055505b6004546001600160a01b031615801590610db957506005546001600160a01b031615155b1561041357600554600454610df19160ff600160a01b8204811692600160a81b8304909116916001600160a01b039182169116610e21565b600680546001600160a01b0319166001600160a01b039283161790819055610e19911661117f565b6104136111e8565b60006001856003811115610e4557634e487b7160e01b600052602160045260246000fd5b1415610ede576001846003811115610e6d57634e487b7160e01b600052602160045260246000fd5b1415610e7b5750600061104e565b6000846003811115610e9d57634e487b7160e01b600052602160045260246000fd5b1415610eaa57508161104e565b6002846003811115610ecc57634e487b7160e01b600052602160045260246000fd5b1415610ed957508061104e565b61104a565b6000856003811115610f0057634e487b7160e01b600052602160045260246000fd5b1415610f94576001846003811115610f2857634e487b7160e01b600052602160045260246000fd5b1415610f3557508061104e565b6000846003811115610f5757634e487b7160e01b600052602160045260246000fd5b1415610f655750600061104e565b6002846003811115610f8757634e487b7160e01b600052602160045260246000fd5b1415610ed957508161104e565b6002856003811115610fb657634e487b7160e01b600052602160045260246000fd5b141561104a576001846003811115610fde57634e487b7160e01b600052602160045260246000fd5b1415610feb57508161104e565b600084600381111561100d57634e487b7160e01b600052602160045260246000fd5b141561101a57508061104e565b600284600381111561103c57634e487b7160e01b600052602160045260246000fd5b141561104a5750600061104e565b5060005b949350505050565b6001600160a01b03808216600081815260208181526040808320549094168083526001918290528483208201549383529390912001546110969190611504565b6001600160a01b038316600090815260036020526040812080549091906110be908490611504565b90915550505050565b6001600160a01b039182166000818152600160208181526040808420805460ff1990811682558185018690556002918201805482169055969097168085528185208054881681558085018690558801805490971690965584845283825280842080546001600160a01b0319908116909155868552818520805482169055948452959052848220805484168155810180546001600160b01b03199081169091559382529390208054909116815590910180549091169055565b6005546001600160a01b039081166000908152600160208190526040808320820154600454909416835290912001546111b89190611504565b6001600160a01b038216600090815260036020526040812080549091906111e0908490611504565b909155505050565b600480546001600160a01b039081166000908152600160208190526040808320805460ff19908116825581840185905560029182018054821690556005805490961685529184208054831681559283019390935591018054909116905581546001600160a01b031990811690925580549091169055565b600060208284031215611270578081fd5b81356001600160a01b0381168114611286578182fd5b9392505050565b60006020828403121561129e578081fd5b5035919050565b60208101600483106112c757634e487b7160e01b600052602160045260246000fd5b91905290565b60208082526019908201527f506c6179657220697320616c726561647920696e2067616d6500000000000000604082015260600190565b60208082526021908201527f416d6f756e74206973206e6f7420657175616c20746f2066756e64732073656e6040820152601d60fa1b606082015260800190565b6020808252600c908201526b105b1c9958591e481c185a5960a21b604082015260600190565b6020808252601490820152734e6f2066756e647320746f20776974686472617760601b604082015260600190565b60208082526023908201527f506c6179657220686173206e6f7420706179656420666f72206e65787420726f6040820152621d5b9960ea1b606082015260800190565b60208082526025908201527f6f70706f6e656e7420686173206e6f7420706179656420666f72206e657874206040820152641c9bdd5b9960da1b606082015260800190565b60208082526035908201527f4f70706f6e656e7420697320616c726561647920696e20637573746f6d65206760408201527430b6b2903bb4ba341037ba3432b910383630bcb2b960591b606082015260800190565b6020808252602e908201527f4120676c6f62616c2067616d652069732063757272656e746c7920616c72656160408201526d647920696e2070726f677265737360901b606082015260800190565b60208082526019908201527f596f752068617665206e6f2077696e6e696e67732e204c4f4c00000000000000604082015260600190565b90815260200190565b6000821982111561152357634e487b7160e01b81526011600452602481fd5b50019056fea264697066735822122070df78ed4650841e02993a50cefdb3a1191edbf7f37dc1f012ea4a6c58bab89364736f6c63430008000033",
  "linkReferences": {},
  "deployedLinkReferences": {}
}