{
  "_format": "hh-sol-artifact-1",
  "contractName": "RockPaperScissors",
  "sourceName": "contracts/RockPaperScissors .sol",
  "abi": [
    {
      "inputs": [],
      "stateMutability": "nonpayable",
      "type": "constructor"
    },
    {
      "inputs": [],
      "name": "choosePaper",
      "outputs": [],
      "stateMutability": "nonpayable",
      "type": "function"
    },
    {
      "inputs": [
        {
          "internalType": "address",
          "name": "opponent",
          "type": "address"
        }
      ],
      "name": "choosePaperAgainst",
      "outputs": [],
      "stateMutability": "nonpayable",
      "type": "function"
    },
    {
      "inputs": [],
      "name": "chooseRock",
      "outputs": [],
      "stateMutability": "nonpayable",
      "type": "function"
    },
    {
      "inputs": [
        {
          "internalType": "address",
          "name": "opponent",
          "type": "address"
        }
      ],
      "name": "chooseRockAgainst",
      "outputs": [],
      "stateMutability": "nonpayable",
      "type": "function"
    },
    {
      "inputs": [],
      "name": "chooseScissors",
      "outputs": [],
      "stateMutability": "nonpayable",
      "type": "function"
    },
    {
      "inputs": [
        {
          "internalType": "address",
          "name": "opponent",
          "type": "address"
        }
      ],
      "name": "chooseScissorsAgainst",
      "outputs": [],
      "stateMutability": "nonpayable",
      "type": "function"
    },
    {
      "inputs": [
        {
          "internalType": "address",
          "name": "",
          "type": "address"
        }
      ],
      "name": "customGames",
      "outputs": [
        {
          "internalType": "address payable",
          "name": "playerOne",
          "type": "address"
        },
        {
          "internalType": "address payable",
          "name": "playerTwo",
          "type": "address"
        },
        {
          "internalType": "enum RockPaperScissors.Moves",
          "name": "playerOneMove",
          "type": "uint8"
        },
        {
          "internalType": "enum RockPaperScissors.Moves",
          "name": "playerTwoMove",
          "type": "uint8"
        }
      ],
      "stateMutability": "view",
      "type": "function"
    },
    {
      "inputs": [
        {
          "internalType": "uint256",
          "name": "amount",
          "type": "uint256"
        }
      ],
      "name": "enterNextRound",
      "outputs": [],
      "stateMutability": "payable",
      "type": "function"
    },
    {
      "inputs": [],
      "name": "getBalance",
      "outputs": [
        {
          "internalType": "uint256",
          "name": "",
          "type": "uint256"
        }
      ],
      "stateMutability": "view",
      "type": "function"
    },
    {
      "inputs": [],
      "name": "getWinningsBalance",
      "outputs": [
        {
          "internalType": "uint256",
          "name": "",
          "type": "uint256"
        }
      ],
      "stateMutability": "nonpayable",
      "type": "function"
    },
    {
      "inputs": [],
      "name": "playerOneMove",
      "outputs": [
        {
          "internalType": "enum RockPaperScissors.Moves",
          "name": "",
          "type": "uint8"
        }
      ],
      "stateMutability": "view",
      "type": "function"
    },
    {
      "inputs": [],
      "name": "playerTwoMove",
      "outputs": [
        {
          "internalType": "enum RockPaperScissors.Moves",
          "name": "",
          "type": "uint8"
        }
      ],
      "stateMutability": "view",
      "type": "function"
    },
    {
      "inputs": [],
      "name": "withdrawWager",
      "outputs": [],
      "stateMutability": "payable",
      "type": "function"
    }
  ],
  "bytecode": "0x6080604052600380546001600160a01b0319169055600480546001600160a81b031916600360a01b1760ff60a81b1916600360a81b17905534801561004357600080fd5b50611b33806100536000396000f3fe6080604052600436106100c25760003560e01c8063ace4e6541161007f578063cc1ccb3f11610059578063cc1ccb3f146101b0578063d0e62709146101d0578063da103c8e146101e5578063de86a6e4146101fa576100c2565b8063ace4e65414610173578063af9d8b9914610188578063c1b9310c146101a8576100c2565b806312065fe0146100c75780634423474f146100f25780634e8aaf1f1461010757806368d35b5814610127578063741c0a0f1461013c578063a96c921d14610151575b600080fd5b3480156100d357600080fd5b506100dc61022a565b6040516100e99190611ad0565b60405180910390f35b6101056101003660046117a6565b61022e565b005b34801561011357600080fd5b50610105610122366004611778565b610370565b34801561013357600080fd5b506101056104f8565b34801561014857600080fd5b506100dc61058c565b34801561015d57600080fd5b50610166610591565b6040516100e99190611866565b34801561017f57600080fd5b506101666105a1565b34801561019457600080fd5b506101056101a3366004611778565b6105b1565b610105610706565b3480156101bc57600080fd5b506101056101cb366004611778565b6107a3565b3480156101dc57600080fd5b5061010561092d565b3480156101f157600080fd5b506101056109bf565b34801561020657600080fd5b5061021a610215366004611778565b610a51565b6040516100e9949392919061182b565b4790565b61026360405180604001604052806013815260200172526563696576696e672056616c75653a20257360681b81525034610a8d565b6102946040518060400160405280600f81526020016e416d6f756e7420736169643a20257360881b81525082610a8d565b8034146102bc5760405162461bcd60e51b81526004016102b390611910565b60405180910390fd5b3360009081526001602052604090205460ff16156102ec5760405162461bcd60e51b81526004016102b390611951565b604080516060810182526001815234602082015290810160029052336000908152600160208181526040928390208451815490151560ff199182161782559185015181840155928401516002808501805492949093929092169190849081111561036657634e487b7160e01b600052602160045260246000fd5b0217905550505050565b6103a16040518060400160405280600f81526020016e02927a1a59037b83837b732b73a1d1608d1b81525082610ad6565b3360009081526001602081905260409091205460ff161515146103d65760405162461bcd60e51b81526004016102b3906119a5565b33600090815260016020526040902060029081015460ff168181111561040c57634e487b7160e01b600052602160045260246000fd5b146104295760405162461bcd60e51b81526004016102b3906118d9565b6001600160a01b03811660009081526001602081905260409091205460ff161515146104675760405162461bcd60e51b81526004016102b3906119e8565b6001600160a01b038181166000908152602081905260409020541615806104a757506001600160a01b038181166000908152602081905260409020541633145b6104c35760405162461bcd60e51b81526004016102b390611a2d565b33600090815260208190526040812080546001600160a01b0319166001600160a01b0384161790556104f59082610b1b565b50565b3360009081526001602081905260409091205460ff1615151461052d5760405162461bcd60e51b81526004016102b3906119a5565b33600090815260016020526040902060029081015460ff168181111561056357634e487b7160e01b600052602160045260246000fd5b146105805760405162461bcd60e51b81526004016102b3906118d9565b61058a6000610ed7565b565b600090565b600454600160a01b900460ff1681565b600454600160a81b900460ff1681565b3360009081526001602081905260409091205460ff161515146105e65760405162461bcd60e51b81526004016102b3906119a5565b33600090815260016020526040902060029081015460ff168181111561061c57634e487b7160e01b600052602160045260246000fd5b146106395760405162461bcd60e51b81526004016102b3906118d9565b6001600160a01b03811660009081526001602081905260409091205460ff161515146106775760405162461bcd60e51b81526004016102b3906119e8565b6001600160a01b038181166000908152602081905260409020541615806106b757506001600160a01b038181166000908152602081905260409020541633145b6106d35760405162461bcd60e51b81526004016102b390611a2d565b33600090815260208190526040902080546001600160a01b0319166001600160a01b0383161790556104f5600182610b1b565b33600090815260016020819052604090912001546107365760405162461bcd60e51b81526004016102b390611977565b33600081815260016020819052604080832090910154905181156108fc0292818181858888f19350505050158015610772573d6000803e3d6000fd5b503360009081526001602081905260408220805460ff19908116825591810192909255600290910180549091169055565b6107d860405180604001604052806013815260200172029b1b4b9b9b7b9399037b83837b732b73a1d1606d1b81525082610ad6565b3360009081526001602081905260409091205460ff1615151461080d5760405162461bcd60e51b81526004016102b3906119a5565b33600090815260016020526040902060029081015460ff168181111561084357634e487b7160e01b600052602160045260246000fd5b146108605760405162461bcd60e51b81526004016102b3906118d9565b6001600160a01b03811660009081526001602081905260409091205460ff1615151461089e5760405162461bcd60e51b81526004016102b3906119e8565b6001600160a01b038181166000908152602081905260409020541615806108de57506001600160a01b038181166000908152602081905260409020541633145b6108fa5760405162461bcd60e51b81526004016102b390611a2d565b33600090815260208190526040902080546001600160a01b0319166001600160a01b0383161790556104f5600282610b1b565b3360009081526001602081905260409091205460ff161515146109625760405162461bcd60e51b81526004016102b3906119a5565b33600090815260016020526040902060029081015460ff168181111561099857634e487b7160e01b600052602160045260246000fd5b146109b55760405162461bcd60e51b81526004016102b3906118d9565b61058a6001610ed7565b3360009081526001602081905260409091205460ff161515146109f45760405162461bcd60e51b81526004016102b3906119a5565b33600090815260016020526040902060029081015460ff1681811115610a2a57634e487b7160e01b600052602160045260246000fd5b14610a475760405162461bcd60e51b81526004016102b3906118d9565b61058a6002610ed7565b600260205260009081526040902080546001909101546001600160a01b039182169181169060ff600160a01b8204811691600160a81b90041684565b610ad28282604051602401610aa39291906118b7565b60408051601f198184030181529190526020810180516001600160e01b03166309710a9d60e41b1790526110a1565b5050565b610ad28282604051602401610aec92919061188d565b60408051601f198184030181529190526020810180516001600160e01b031663319af33360e01b1790526110a1565b600133600090815260016020526040902060029081015460ff1690811115610b5357634e487b7160e01b600052602160045260246000fd5b50506001600160a01b0381811660009081526020819052604090205416610d7f57610ba960405180604001604052806013815260200172021b932b0ba34b733903732bb9033b0b6b29d1606d1b81525033610ad6565b604080516080810182523381526001600160a01b03831660208201526000918101846003811115610bea57634e487b7160e01b600052602160045260246000fd5b81526020016003905233600090815260026020908152604091829020835181546001600160a01b03199081166001600160a01b0392831617835592850151600183018054909416911617808355928401519394508493909290919060ff60a01b1916600160a01b836003811115610c7157634e487b7160e01b600052602160045260246000fd5b0217905550606082015160018201805460ff60a81b1916600160a81b836003811115610cad57634e487b7160e01b600052602160045260246000fd5b021790555050506001600160a01b03808316600090815260026020908152604091829020845181549085166001600160a01b03199182161782559185015160018201805491909516921691909117808455918401518493919290919060ff60a01b1916600160a01b836003811115610d3557634e487b7160e01b600052602160045260246000fd5b0217905550606082015160018201805460ff60a81b1916600160a81b836003811115610d7157634e487b7160e01b600052602160045260246000fd5b021790555090505050610ad2565b610db3604051806040016040528060138152602001722732b2b2103a37903334b732103bb4b73732b960691b8152506110c2565b336000908152600260205260409020600101805483919060ff60a81b1916600160a81b836003811115610df657634e487b7160e01b600052602160045260246000fd5b0217905550610e276040518060400160405280600a8152602001690383630bcb2b910189d160b51b81525082610ad6565b610e536040518060400160405280600a8152602001690383630bcb2b910191d160b51b81525033610ad6565b336000818152600260205260408082206001908101546001600160a01b038616845291832001549192610e9d9260ff600160a81b909304831692600160a01b909104169085611105565b9050610ec96040518060400160405280600881526020016702bb4b73732b91d160c51b81525082610ad6565b610ed2816114e1565b505050565b6003546001600160a01b03161580610ef857506004546001600160a01b0316155b610f145760405162461bcd60e51b81526004016102b390611a82565b336000908152600160205260409020600201805460ff191690556003546001600160a01b0316610f8f57600380546001600160a01b0319163317815560048054839260ff60a01b1990911690600160a01b908490811115610f8557634e487b7160e01b600052602160045260246000fd5b0217905550610fe7565b6004546001600160a01b0316610fe757600480546001600160a01b031916331780825582919060ff60a81b1916600160a81b836003811115610fe157634e487b7160e01b600052602160045260246000fd5b02179055505b6003546001600160a01b03161580159061100b57506004546001600160a01b031615155b156104f5576004546003546110439160ff600160a01b8204811692600160a81b8304909116916001600160a01b039182169116611105565b600580546001600160a01b0319166001600160a01b03928316179081905560408051808201909152600881526703bb4b73732b91d160c51b602082015261108c92909116610ad6565b6005546104f5906001600160a01b0316611608565b80516a636f6e736f6c652e6c6f67602083016000808483855afa5050505050565b6104f5816040516024016110d6919061187a565b60408051601f198184030181529190526020810180516001600160e01b031663104c13eb60e21b1790526110a1565b6000600185600381111561112957634e487b7160e01b600052602160045260246000fd5b141561120657600184600381111561115157634e487b7160e01b600052602160045260246000fd5b141561115f575060006114d9565b600084600381111561118157634e487b7160e01b600052602160045260246000fd5b14156111b05750600354600580546001600160a01b0319166001600160a01b03909216919091179055816114d9565b60028460038111156111d257634e487b7160e01b600052602160045260246000fd5b14156112015750600454600580546001600160a01b0319166001600160a01b03909216919091179055806114d9565b6114ac565b600085600381111561122857634e487b7160e01b600052602160045260246000fd5b141561130057600184600381111561125057634e487b7160e01b600052602160045260246000fd5b141561127f5750600454600580546001600160a01b0319166001600160a01b03909216919091179055806114d9565b60008460038111156112a157634e487b7160e01b600052602160045260246000fd5b14156112af575060006114d9565b60028460038111156112d157634e487b7160e01b600052602160045260246000fd5b14156112015750600354600580546001600160a01b0319166001600160a01b03909216919091179055816114d9565b600285600381111561132257634e487b7160e01b600052602160045260246000fd5b14156114ac576113566040518060400160405280600d81526020016c73636973736f7273206d6f766560981b8152506110c2565b600184600381111561137857634e487b7160e01b600052602160045260246000fd5b14156113d2576113a96040518060400160405280600a81526020016902927a1a5902820a820960b51b8152506110c2565b50600354600580546001600160a01b0319166001600160a01b03909216919091179055816114d9565b60008460038111156113f457634e487b7160e01b600052602160045260246000fd5b141561144e576114256040518060400160405280600a81526020016902927a1a59026a7ab22960b51b8152506110c2565b50600454600580546001600160a01b0319166001600160a01b03909216919091179055806114d9565b600284600381111561147057634e487b7160e01b600052602160045260246000fd5b14156114ac576114a46040518060400160405280600d81526020016c02927a1a59029a1a4a9a9a7a91609d1b8152506110c2565b5060006114d9565b6114d56040518060400160405280600881526020016709c9e409a82a886960c31b8152506110c2565b5060005b949350505050565b6001600160a01b038082166000818152602081815260408083205490941680835260019182905284832082015484845294909220015490926108fc916115279190611ad9565b6040518115909202916000818181858888f1935050505015801561154f573d6000803e3d6000fd5b506001600160a01b039182166000818152600160208181526040808420805460ff1990811682558185018690556002918201805482169055969097168085528185208054881681558085018690558801805490971690965584845283825280842080546001600160a01b0319908116909155868552818520805482169055948452959052848220805484168155810180546001600160b01b03199081169091559382529390208054909116815590910180549091169055565b6116356040518060400160405280600b81526020016a02bb4b73732b91034b99d160ad1b81525082610ad6565b6040805180820182526009815268029b2b73234b7339d160bd1b6020808301919091526004546001600160a01b03908116600090815260019283905284812083015460035490921681529390932001546116979261169291611ad9565b610a8d565b6004546001600160a01b0390811660009081526001602081905260408083208201546003548516845292200154918316916108fc916116d591611ad9565b6040518115909202916000818181858888f193505050501580156116fd573d6000803e3d6000fd5b506104f5600380546001600160a01b039081166000908152600160208190526040808320805460ff19908116825581840185905560029182018054821690556004805490961685529184208054831681559283019390935591018054909116905581546001600160a01b031990811690925580549091169055565b600060208284031215611789578081fd5b81356001600160a01b038116811461179f578182fd5b9392505050565b6000602082840312156117b7578081fd5b5035919050565b600481106117dc57634e487b7160e01b600052602160045260246000fd5b9052565b60008151808452815b81811015611805576020818501810151868301820152016117e9565b818111156118165782602083870101525b50601f01601f19169290920160200192915050565b6001600160a01b038581168252841660208201526080810161185060408301856117be565b61185d60608301846117be565b95945050505050565b6020810161187482846117be565b92915050565b60006020825261179f60208301846117e0565b6000604082526118a060408301856117e0565b905060018060a01b03831660208301529392505050565b6000604082526118ca60408301856117e0565b90508260208301529392505050565b60208082526019908201527f506c6179657220697320616c726561647920696e2067616d6500000000000000604082015260600190565b60208082526021908201527f416d6f756e74206973206e6f7420657175616c20746f2066756e64732073656e6040820152601d60fa1b606082015260800190565b6020808252600c908201526b105b1c9958591e481c185a5960a21b604082015260600190565b6020808252601490820152734e6f2066756e647320746f20776974686472617760601b604082015260600190565b60208082526023908201527f506c6179657220686173206e6f7420706179656420666f72206e65787420726f6040820152621d5b9960ea1b606082015260800190565b60208082526025908201527f6f70706f6e656e7420686173206e6f7420706179656420666f72206e657874206040820152641c9bdd5b9960da1b606082015260800190565b60208082526035908201527f4f70706f6e656e7420697320616c726561647920696e20637573746f6d65206760408201527430b6b2903bb4ba341037ba3432b910383630bcb2b960591b606082015260800190565b6020808252602e908201527f4120676c6f62616c2067616d652069732063757272656e746c7920616c72656160408201526d647920696e2070726f677265737360901b606082015260800190565b90815260200190565b60008219821115611af857634e487b7160e01b81526011600452602481fd5b50019056fea264697066735822122099e15450f616e92e19b86ff822d72f2df2bbbc0065505b81e5309a221cf6cd5464736f6c63430008000033",
  "linkReferences": {},
  "deployedLinkReferences": {}
}